{
  "contractName": "FlightSuretyData",
  "abi": [
    {
      "inputs": [],
      "stateMutability": "nonpayable",
      "type": "constructor"
    },
    {
      "inputs": [],
      "name": "isOperational",
      "outputs": [
        {
          "internalType": "bool",
          "name": "",
          "type": "bool"
        }
      ],
      "stateMutability": "view",
      "type": "function"
    },
    {
      "inputs": [
        {
          "internalType": "bool",
          "name": "mode",
          "type": "bool"
        }
      ],
      "name": "setOperatingStatus",
      "outputs": [],
      "stateMutability": "nonpayable",
      "type": "function"
    },
    {
      "inputs": [
        {
          "internalType": "address",
          "name": "callerAirline",
          "type": "address"
        },
        {
          "internalType": "address",
          "name": "newAirlineAddress",
          "type": "address"
        },
        {
          "internalType": "string",
          "name": "code",
          "type": "string"
        },
        {
          "internalType": "bool",
          "name": "queue",
          "type": "bool"
        }
      ],
      "name": "registerAirline",
      "outputs": [],
      "stateMutability": "nonpayable",
      "type": "function"
    },
    {
      "inputs": [
        {
          "internalType": "address",
          "name": "callerAirline",
          "type": "address"
        },
        {
          "internalType": "address",
          "name": "newAirlineAddress",
          "type": "address"
        },
        {
          "internalType": "string",
          "name": "code",
          "type": "string"
        },
        {
          "internalType": "uint256",
          "name": "votesQuantityToBeAccepted",
          "type": "uint256"
        }
      ],
      "name": "registerVote",
      "outputs": [],
      "stateMutability": "nonpayable",
      "type": "function"
    },
    {
      "inputs": [
        {
          "internalType": "string",
          "name": "code",
          "type": "string"
        }
      ],
      "name": "fundAirlineMembership",
      "outputs": [],
      "stateMutability": "payable",
      "type": "function"
    },
    {
      "inputs": [],
      "name": "buy",
      "outputs": [],
      "stateMutability": "payable",
      "type": "function"
    },
    {
      "inputs": [],
      "name": "creditInsurees",
      "outputs": [],
      "stateMutability": "pure",
      "type": "function"
    },
    {
      "inputs": [],
      "name": "pay",
      "outputs": [],
      "stateMutability": "pure",
      "type": "function"
    },
    {
      "inputs": [],
      "name": "fund",
      "outputs": [],
      "stateMutability": "payable",
      "type": "function"
    }
  ],
  "bytecode": "0x608060405260018060146101000a81548160ff02191690831515021790555034801561002a57600080fd5b50600160008190555033600160006101000a81548173ffffffffffffffffffffffffffffffffffffffff021916908373ffffffffffffffffffffffffffffffffffffffff160217905550611ea5806100836000396000f3fe6080604052600436106100865760003560e01c8063a6f2ae3a11610059578063a6f2ae3a1461010b578063aa7f566f14610115578063b60d428814610131578063be0a85471461013b578063cd905dff1461016457610086565b8063110466ed1461008b5780631b9265b8146100b457806336cee484146100cb5780639ffd0c34146100e2575b600080fd5b34801561009757600080fd5b506100b260048036038101906100ad919061136c565b61018f565b005b3480156100c057600080fd5b506100c961023c565b005b3480156100d757600080fd5b506100e061023e565b005b3480156100ee57600080fd5b506101096004803603810190610104919061153d565b610240565b005b6101136106e1565b005b61012f600480360381019061012a91906115c0565b6106e3565b005b610139610948565b005b34801561014757600080fd5b50610162600480360381019061015d919061163f565b6109a0565b005b34801561017057600080fd5b506101796110ec565b60405161018691906116d1565b60405180910390f35b600160009054906101000a900473ffffffffffffffffffffffffffffffffffffffff1673ffffffffffffffffffffffffffffffffffffffff163373ffffffffffffffffffffffffffffffffffffffff161461021f576040517f08c379a000000000000000000000000000000000000000000000000000000000815260040161021690611749565b60405180910390fd5b80600160146101000a81548160ff02191690831515021790555050565b565b565b600160149054906101000a900460ff1661028f576040517f08c379a0000000000000000000000000000000000000000000000000000000008152600401610286906117db565b60405180910390fd5b836000600360008373ffffffffffffffffffffffffffffffffffffffff1673ffffffffffffffffffffffffffffffffffffffff1681526020019081526020016000206040518060800160405290816000820160009054906101000a900460ff16151515158152602001600182015481526020016002820160009054906101000a900460ff1615151515815260200160038201805461032c9061182a565b80601f01602080910402602001604051908101604052809291908181526020018280546103589061182a565b80156103a55780601f1061037a576101008083540402835291602001916103a5565b820191906000526020600020905b81548152906001019060200180831161038857829003601f168201915b505050505081525050905060001515816000015115151480156103d057506000151581604001511515145b61040f576040517f08c379a0000000000000000000000000000000000000000000000000000000008152600401610406906118ce565b60405180910390fd5b8484600061041c82611103565b141561045d576040517f08c379a00000000000000000000000000000000000000000000000000000000081526004016104549061193a565b60405180910390fd5b8060405160200161046e91906119d1565b60405160208183030381529060405280519060200120600360008473ffffffffffffffffffffffffffffffffffffffff1673ffffffffffffffffffffffffffffffffffffffff1681526020019081526020016000206003016040516020016104d69190611a88565b60405160208183030381529060405280519060200120141561052d576040517f08c379a000000000000000000000000000000000000000000000000000000000815260040161052490611af6565b60405180910390fd5b60026000541415610573576040517f08c379a000000000000000000000000000000000000000000000000000000000815260040161056a90611b62565b60405180910390fd5b600260008190555085600360008973ffffffffffffffffffffffffffffffffffffffff1673ffffffffffffffffffffffffffffffffffffffff16815260200190815260200160002060030190805190602001906105d192919061127d565b506000600360008973ffffffffffffffffffffffffffffffffffffffff1673ffffffffffffffffffffffffffffffffffffffff16815260200190815260200160002060020160006101000a81548160ff02191690831515021790555084600360008973ffffffffffffffffffffffffffffffffffffffff1673ffffffffffffffffffffffffffffffffffffffff16815260200190815260200160002060000160006101000a81548160ff0219169083151502179055506000600360008973ffffffffffffffffffffffffffffffffffffffff1673ffffffffffffffffffffffffffffffffffffffff1681526020019081526020016000206001018190555060016000819055505050505050505050565b565b678ac7230489e8000034101561072e576040517f08c379a000000000000000000000000000000000000000000000000000000000815260040161072590611bf4565b60405180910390fd5b3381600061073b82611103565b141561077c576040517f08c379a00000000000000000000000000000000000000000000000000000000081526004016107739061193a565b60405180910390fd5b8060405160200161078d91906119d1565b60405160208183030381529060405280519060200120600360008473ffffffffffffffffffffffffffffffffffffffff1673ffffffffffffffffffffffffffffffffffffffff1681526020019081526020016000206003016040516020016107f59190611a88565b604051602081830303815290604052805190602001201461084b576040517f08c379a000000000000000000000000000000000000000000000000000000000815260040161084290611af6565b60405180910390fd5b3360001515600360008373ffffffffffffffffffffffffffffffffffffffff1673ffffffffffffffffffffffffffffffffffffffff16815260200190815260200160002060020160009054906101000a900460ff16151514156108e3576040517f08c379a00000000000000000000000000000000000000000000000000000000081526004016108da90611c60565b60405180910390fd5b60026000541415610929576040517f08c379a000000000000000000000000000000000000000000000000000000000815260040161092090611b62565b60405180910390fd5b600260008190555061093a3361110e565b600160008190555050505050565b6002600054141561098e576040517f08c379a000000000000000000000000000000000000000000000000000000000815260040161098590611b62565b60405180910390fd5b60026000819055506001600081905550565b600160149054906101000a900460ff166109ef576040517f08c379a00000000000000000000000000000000000000000000000000000000081526004016109e6906117db565b60405180910390fd5b60046002805490501015610a38576040517f08c379a0000000000000000000000000000000000000000000000000000000008152600401610a2f90611ccc565b60405180910390fd5b836000600360008373ffffffffffffffffffffffffffffffffffffffff1673ffffffffffffffffffffffffffffffffffffffff1681526020019081526020016000206040518060800160405290816000820160009054906101000a900460ff16151515158152602001600182015481526020016002820160009054906101000a900460ff16151515158152602001600382018054610ad59061182a565b80601f0160208091040260200160405190810160405280929190818152602001828054610b019061182a565b8015610b4e5780601f10610b2357610100808354040283529160200191610b4e565b820191906000526020600020905b815481529060010190602001808311610b3157829003601f168201915b50505050508152505090506000151581600001511515148015610b7957506000151581604001511515145b610bb8576040517f08c379a0000000000000000000000000000000000000000000000000000000008152600401610baf906118ce565b60405180910390fd5b84846000610bc582611103565b1415610c06576040517f08c379a0000000000000000000000000000000000000000000000000000000008152600401610bfd9061193a565b60405180910390fd5b80604051602001610c1791906119d1565b60405160208183030381529060405280519060200120600360008473ffffffffffffffffffffffffffffffffffffffff1673ffffffffffffffffffffffffffffffffffffffff168152602001908152602001600020600301604051602001610c7f9190611a88565b6040516020818303038152906040528051906020012014610cd5576040517f08c379a0000000000000000000000000000000000000000000000000000000008152600401610ccc90611af6565b60405180910390fd5b8660001515600460003373ffffffffffffffffffffffffffffffffffffffff1673ffffffffffffffffffffffffffffffffffffffff16815260200190815260200160002060008373ffffffffffffffffffffffffffffffffffffffff1673ffffffffffffffffffffffffffffffffffffffff16815260200190815260200160002060009054906101000a900460ff16151514610da6576040517f08c379a0000000000000000000000000000000000000000000000000000000008152600401610d9d90611d5e565b60405180910390fd5b8760001515600360008373ffffffffffffffffffffffffffffffffffffffff1673ffffffffffffffffffffffffffffffffffffffff16815260200190815260200160002060000160009054906101000a900460ff16151514610e3d576040517f08c379a0000000000000000000000000000000000000000000000000000000008152600401610e3490611dca565b60405180910390fd5b60026000541415610e83576040517f08c379a0000000000000000000000000000000000000000000000000000000008152600401610e7a90611b62565b60405180910390fd5b60026000819055506001600460003373ffffffffffffffffffffffffffffffffffffffff1673ffffffffffffffffffffffffffffffffffffffff16815260200190815260200160002060008b73ffffffffffffffffffffffffffffffffffffffff1673ffffffffffffffffffffffffffffffffffffffff16815260200190815260200160002060006101000a81548160ff0219169083151502179055506001600360008b73ffffffffffffffffffffffffffffffffffffffff1673ffffffffffffffffffffffffffffffffffffffff1681526020019081526020016000206001016000828254610f739190611e19565b9250508190555086600360008b73ffffffffffffffffffffffffffffffffffffffff1673ffffffffffffffffffffffffffffffffffffffff16815260200190815260200160002060010154106110d8576001600360008b73ffffffffffffffffffffffffffffffffffffffff1673ffffffffffffffffffffffffffffffffffffffff16815260200190815260200160002060000160006101000a81548160ff021916908315150217905550600360008a73ffffffffffffffffffffffffffffffffffffffff1673ffffffffffffffffffffffffffffffffffffffff16815260200190815260200160002060020160009054906101000a900460ff16156110d75760028a9080600181540180825580915050600190039060005260206000200160009091909190916101000a81548173ffffffffffffffffffffffffffffffffffffffff021916908373ffffffffffffffffffffffffffffffffffffffff1602179055505b5b600160008190555050505050505050505050565b6000600160149054906101000a900460ff16905090565b600081519050919050565b6001600360008373ffffffffffffffffffffffffffffffffffffffff1673ffffffffffffffffffffffffffffffffffffffff16815260200190815260200160002060020160006101000a81548160ff021916908315150217905550600360008273ffffffffffffffffffffffffffffffffffffffff1673ffffffffffffffffffffffffffffffffffffffff16815260200190815260200160002060020160009054906101000a900460ff1680156112115750600360008273ffffffffffffffffffffffffffffffffffffffff1673ffffffffffffffffffffffffffffffffffffffff16815260200190815260200160002060000160009054906101000a900460ff165b1561127a576002819080600181540180825580915050600190039060005260206000200160009091909190916101000a81548173ffffffffffffffffffffffffffffffffffffffff021916908373ffffffffffffffffffffffffffffffffffffffff1602179055505b50565b8280546112899061182a565b90600052602060002090601f0160209004810192826112ab57600085556112f2565b82601f106112c457805160ff19168380011785556112f2565b828001600101855582156112f2579182015b828111156112f15782518255916020019190600101906112d6565b5b5090506112ff9190611303565b5090565b5b8082111561131c576000816000905550600101611304565b5090565b6000604051905090565b600080fd5b600080fd5b60008115159050919050565b61134981611334565b811461135457600080fd5b50565b60008135905061136681611340565b92915050565b6000602082840312156113825761138161132a565b5b600061139084828501611357565b91505092915050565b600073ffffffffffffffffffffffffffffffffffffffff82169050919050565b60006113c482611399565b9050919050565b6113d4816113b9565b81146113df57600080fd5b50565b6000813590506113f1816113cb565b92915050565b600080fd5b600080fd5b6000601f19601f8301169050919050565b7f4e487b7100000000000000000000000000000000000000000000000000000000600052604160045260246000fd5b61144a82611401565b810181811067ffffffffffffffff8211171561146957611468611412565b5b80604052505050565b600061147c611320565b90506114888282611441565b919050565b600067ffffffffffffffff8211156114a8576114a7611412565b5b6114b182611401565b9050602081019050919050565b82818337600083830152505050565b60006114e06114db8461148d565b611472565b9050828152602081018484840111156114fc576114fb6113fc565b5b6115078482856114be565b509392505050565b600082601f830112611524576115236113f7565b5b81356115348482602086016114cd565b91505092915050565b600080600080608085870312156115575761155661132a565b5b6000611565878288016113e2565b9450506020611576878288016113e2565b935050604085013567ffffffffffffffff8111156115975761159661132f565b5b6115a38782880161150f565b92505060606115b487828801611357565b91505092959194509250565b6000602082840312156115d6576115d561132a565b5b600082013567ffffffffffffffff8111156115f4576115f361132f565b5b6116008482850161150f565b91505092915050565b6000819050919050565b61161c81611609565b811461162757600080fd5b50565b60008135905061163981611613565b92915050565b600080600080608085870312156116595761165861132a565b5b6000611667878288016113e2565b9450506020611678878288016113e2565b935050604085013567ffffffffffffffff8111156116995761169861132f565b5b6116a58782880161150f565b92505060606116b68782880161162a565b91505092959194509250565b6116cb81611334565b82525050565b60006020820190506116e660008301846116c2565b92915050565b600082825260208201905092915050565b7f43616c6c6572206973206e6f7420636f6e7472616374206f776e657200000000600082015250565b6000611733601c836116ec565b915061173e826116fd565b602082019050919050565b6000602082019050818103600083015261176281611726565b9050919050565b7f436f6e74726163742069732063757272656e746c79206e6f74206f706572617460008201527f696f6e616c000000000000000000000000000000000000000000000000000000602082015250565b60006117c56025836116ec565b91506117d082611769565b604082019050919050565b600060208201905081810360008301526117f4816117b8565b9050919050565b7f4e487b7100000000000000000000000000000000000000000000000000000000600052602260045260246000fd5b6000600282049050600182168061184257607f821691505b60208210811415611856576118556117fb565b5b50919050565b7f596f752063616e2774207061727469636970617465206f6e207468697320636f60008201527f6e74726163740000000000000000000000000000000000000000000000000000602082015250565b60006118b86026836116ec565b91506118c38261185c565b604082019050919050565b600060208201905081810360008301526118e7816118ab565b9050919050565b7f456d707479206169726c696e6520636f6465206e6f7420616c6c6f7765640000600082015250565b6000611924601e836116ec565b915061192f826118ee565b602082019050919050565b6000602082019050818103600083015261195381611917565b9050919050565b600081519050919050565b60005b83811015611983578082015181840152602081019050611968565b83811115611992576000848401525b50505050565b60006119a38261195a565b6119ad81856116ec565b93506119bd818560208601611965565b6119c681611401565b840191505092915050565b600060208201905081810360008301526119eb8184611998565b905092915050565b60008190508160005260206000209050919050565b60008154611a158161182a565b611a1f81866116ec565b94506001821660008114611a3a5760018114611a4c57611a7f565b60ff1983168652602086019350611a7f565b611a55856119f3565b60005b83811015611a7757815481890152600182019150602081019050611a58565b808801955050505b50505092915050565b60006020820190508181036000830152611aa28184611a08565b905092915050565b7f546865206169726c696e65206e6f742065786973740000000000000000000000600082015250565b6000611ae06015836116ec565b9150611aeb82611aaa565b602082019050919050565b60006020820190508181036000830152611b0f81611ad3565b9050919050565b7f5265656e7472616e637947756172643a207265656e7472616e742063616c6c00600082015250565b6000611b4c601f836116ec565b9150611b5782611b16565b602082019050919050565b60006020820190508181036000830152611b7b81611b3f565b9050919050565b7f596f7520646f6e742073656e7420746865207269676874204554482076616c7560008201527f6500000000000000000000000000000000000000000000000000000000000000602082015250565b6000611bde6021836116ec565b9150611be982611b82565b604082019050919050565b60006020820190508181036000830152611c0d81611bd1565b9050919050565b7f54686973206169726c696e6520697320616c72656164792066756e6465640000600082015250565b6000611c4a601e836116ec565b9150611c5582611c14565b602082019050919050565b60006020820190508181036000830152611c7981611c3d565b9050919050565b7f5765277265206e6f7420726563656976696e6720766f74657320796574200000600082015250565b6000611cb6601e836116ec565b9150611cc182611c80565b602082019050919050565b60006020820190508181036000830152611ce581611ca9565b9050919050565b7f596f752063616e277420766f746520747769636520666f72207468652073616d60008201527f65206169726c696e650000000000000000000000000000000000000000000000602082015250565b6000611d486029836116ec565b9150611d5382611cec565b604082019050919050565b60006020820190508181036000830152611d7781611d3b565b9050919050565b7f546865206169726c696e65206973207374696c6c20696e207175657565000000600082015250565b6000611db4601d836116ec565b9150611dbf82611d7e565b602082019050919050565b60006020820190508181036000830152611de381611da7565b9050919050565b7f4e487b7100000000000000000000000000000000000000000000000000000000600052601160045260246000fd5b6000611e2482611609565b9150611e2f83611609565b9250827fffffffffffffffffffffffffffffffffffffffffffffffffffffffffffffffff03821115611e6457611e63611dea565b5b82820190509291505056fea2646970667358221220c59c7e32c0e04350c098a917291871aeeb6747f6a93676dc68cacee773afb52364736f6c634300080a0033",
  "immutableReferences": {},
  "source": "// SPDX-License-Identifier: MIT\npragma solidity ^0.8.10;\n\n\nimport \"../node_modules/@openzeppelin/contracts/security/ReentrancyGuard.sol\";\n\ncontract FlightSuretyData is ReentrancyGuard{\n\n    /********************************************************************************************/\n    /*                                       DATA VARIABLES                                     */\n    /********************************************************************************************/\n\n    address private contractOwner;                                      // Account used to deploy contract\n    bool private operational = true;                                    // Blocks all state changes throughout the contract if false\n    address[] contractActiveAirlines; // An airline is active when their state is accepted and is already funded\n    mapping(address => Airline) private airlines; //mapping for all airlines\n    mapping(address => mapping(address => bool)) private voteTracker; //Allow track an airline votes to accept another airline\n    \n    struct Airline {\n        bool accepted; //If the airline should be voted to be in, once reach the minimum votes change to accepted\n        uint256 votes; // Votes counter\n        bool funded; //the airline can be accepted \n        string code;   //also works with a airline identifier\n    }\n\n\n\n    /********************************************************************************************/\n    /*                                       EVENT DEFINITIONS                                  */\n    /********************************************************************************************/\n\n\n    /**\n    * @dev Constructor\n    *      The deploying account becomes contractOwner\n    */\n    constructor\n                                (\n                                ) \n                                \n    {\n        contractOwner = msg.sender;\n    }\n\n    /********************************************************************************************/\n    /*                                       FUNCTION MODIFIERS                                 */\n    /********************************************************************************************/\n\n    // Modifiers help avoid duplication of code. They are typically used to validate something\n    // before a function is allowed to be executed.\n\n    /**\n    * @dev Modifier that requires the \"operational\" boolean variable to be \"true\"\n    *      This is used on all state changing functions to pause the contract in \n    *      the event there is an issue that needs to be fixed\n    */\n    modifier requireIsOperational() \n    {\n      require(operational, \"Contract is currently not operational\");\n      _;  // All modifiers require an \"_\" which indicates where the function body will be added\n    }\n\n    /**\n    * @dev Modifier that requires the \"ContractOwner\" account to be the function caller\n    */\n    modifier requireContractOwner()\n    {\n      require(msg.sender == contractOwner, \"Caller is not contract owner\");\n      _;\n    }\n\n    /**\n    * @dev Modifier that requires the an airline only can vote once for the same airline\n    */\n    modifier isADoubleVote(address newAirlineAddress) {\n      require(voteTracker[msg.sender][newAirlineAddress] == false, \"You can't vote twice for the same airline\");\n      _;\n    }\n\n    /**\n    * @dev The airline should fund a value equal or grater than 10 ether to participate in the contract\n    */\n    modifier requireAmount() {\n      require(msg.value >= 10 ether, \"You dont sent the right ETH value\");\n      _;\n    }\n\n    /**\n    * @dev check if a airline NOT EXIST in the airlines mapping\n    */\n    modifier AirlineNOTExist(address airlineAddress, string memory code) {\n      require (getStringLength(code) != 0, \"Empty airline code not allowed\");\n      require(keccak256(abi.encode(airlines[airlineAddress].code)) != keccak256(abi.encode(code)), \"The airline not exist\");\n      _;\n    }\n\n    /**\n    * @dev check if a airline EXIST in the airlines mapping\n    */\n    modifier AirlineExist(address airlineAddress, string memory code) {\n      require (getStringLength(code) != 0, \"Empty airline code not allowed\");\n      require(keccak256(abi.encode(airlines[airlineAddress].code)) == keccak256(abi.encode(code)), \"The airline not exist\");\n      _;\n    }\n\n\n    /**\n    * @dev Modifier that requires the multi party consensus is already enable\n    */\n    modifier isMultiPartyAccepted() {\n      require(contractActiveAirlines.length >= 4, \"We're not receiving votes yet \");\n      _;\n    }\n\n    /**\n    * @dev Modifier that requires the airline is still in queue\n    */\n    modifier isAnAirlineInQueue(address newAirline) {\n      require(airlines[newAirline].accepted == false, \"The airline is still in queue\");\n      _;\n    }\n\n    /**\n    * @dev Modifier that requires the airline is accepted and funded to participate in the contract\n    */\n    modifier isAEnableAirline(address callerAirline) {\n      Airline memory airlineReference = airlines[callerAirline];\n      require(airlineReference.accepted == false && airlineReference.funded == false , \"You can't participate on this contract\");\n      _;\n    }\n\n    /**\n    * @dev Modifier that requires the airline is not funded yet\n    */\n    modifier isNotFundedYet(address callerAirline) {\n      require(airlines[callerAirline].funded != false, \"This airline is already funded\");\n      _;\n    }\n    /********************************************************************************************/\n    /*                                       UTILITY FUNCTIONS                                  */\n    /********************************************************************************************/\n\n    /**\n    * @dev Get operating status of contract\n    *\n    * @return A bool that is the current operating status\n    */      \n    function isOperational() \n                            public \n                            view \n                            returns(bool) \n    {\n        return operational;\n    }\n\n\n    /**\n    * @dev Sets contract operations on/off\n    *\n    * When operational mode is disabled, all write transactions except for this one will fail\n    */    \n    function setOperatingStatus\n                            (\n                                bool mode\n                            ) \n                            external\n                            requireContractOwner \n    {\n        operational = mode;\n    }\n    \n    /**\n    * @dev get a string and return its length\n    */\n    function getStringLength (string memory referenceString) internal pure returns (uint) {\n      return bytes(referenceString).length;\n    }\n\n    /********************************************************************************************/\n    /*                                     SMART CONTRACT FUNCTIONS                             */\n    /********************************************************************************************/\n\n   /**\n    * @dev Add an airline to the registration queue\n    *  Can only be called from FlightSuretyApp contract\n    */   \n    function registerAirline (\n      address callerAirline,\n      address newAirlineAddress,\n      string memory code,\n      bool queue //If the airline must to receive votes from another airlines to be accepted \n    ) external \n      requireIsOperational \n      isAEnableAirline(callerAirline) \n      AirlineNOTExist(newAirlineAddress, code)\n      nonReentrant {\n      airlines[newAirlineAddress].code = code;\n      airlines[newAirlineAddress].funded = false;\n      airlines[newAirlineAddress].accepted = queue;\n      airlines[newAirlineAddress].votes = 0;\n    }\n\n    /**\n    * @dev register the vote for an airline in the multiparty concensus\n    */ \n\n     function registerVote (\n      address callerAirline,\n      address newAirlineAddress,\n      string memory code,\n      uint votesQuantityToBeAccepted\n    ) external \n      requireIsOperational\n      isMultiPartyAccepted\n      isAEnableAirline(callerAirline)\n      AirlineExist(newAirlineAddress, code)\n      isADoubleVote(newAirlineAddress)\n      isAnAirlineInQueue(newAirlineAddress)\n      nonReentrant {\n      voteTracker[msg.sender][newAirlineAddress] = true;\n      airlines[newAirlineAddress].votes += 1;\n      //Check if whit the current amount of votes, the airline can be already accepted\n      if(airlines[newAirlineAddress].votes >= votesQuantityToBeAccepted) {\n        airlines[newAirlineAddress].accepted = true;\n        if(airlines[newAirlineAddress].funded) {\n          contractActiveAirlines.push(callerAirline);\n        }\n      }\n    }\n\n    /**\n    * @dev Initial funding for the insurance. Unless there are too many delayed flights\n    *      resulting in insurance payouts, the contract should be self-sustaining\n    */   \n    function fundAirlineMembership (string memory code) \n      public payable \n      requireAmount \n      AirlineExist(msg.sender, code)\n      isNotFundedYet(msg.sender)\n      nonReentrant {\n        _fundAirlineMembership(msg.sender);\n    }\n\n    /**\n    * @dev Update the airline funded state and active airlines array\n    */\n    function _fundAirlineMembership (address fundedAirline) private {\n      airlines[fundedAirline].funded = true;\n      if (airlines[fundedAirline].funded && airlines[fundedAirline].accepted) {\n        contractActiveAirlines.push(fundedAirline);\n      }\n    }\n\n   /**\n    * @dev Buy insurance for a flight\n    *\n    */   \n    function buy\n                            (                             \n                            )\n                            external\n                            payable\n    {\n\n    }\n\n    /**\n     *  @dev Credits payouts to insurees\n    */\n    function creditInsurees\n                                (\n                                )\n                                external\n                                pure\n    {\n    }\n    \n\n    /**\n     *  @dev Transfers eligible payout funds to insuree\n     *\n    */\n    function pay\n                            (\n                            )\n                            external\n                            pure\n    {\n    }\n\n   /**\n    * @dev Initial funding for the insurance. Unless there are too many delayed flights\n    *      resulting in insurance payouts, the contract should be self-sustaining\n    *\n    */   \n    function fund ( )public payable  nonReentrant {\n    }\n\n    function getFlightKey\n                        (\n                            address airline,\n                            string memory flight,\n                            uint256 timestamp\n                        )\n                        pure\n                        internal\n                        returns(bytes32) \n    {\n        return keccak256(abi.encodePacked(airline, flight, timestamp));\n    }\n\n\n}\n\n",
  "sourcePath": "/home/davidrb/Documents/estudio/blockchain/udacity/me/fifth-module/me/final-proyect/contracts/FlightSuretyData.sol",
  "compiler": {
    "name": "solc",
    "version": "0.8.10+commit.fc410830.Emscripten.clang"
  },
  "schemaVersion": "3.4.3",
  "updatedAt": "2022-01-21T16:58:45.417Z",
  "devdoc": {
    "kind": "dev",
    "methods": {
      "buy()": {
        "details": "Buy insurance for a flight"
      },
      "constructor": {
        "details": "Constructor      The deploying account becomes contractOwner"
      },
      "creditInsurees()": {
        "details": "Credits payouts to insurees"
      },
      "fund()": {
        "details": "Initial funding for the insurance. Unless there are too many delayed flights      resulting in insurance payouts, the contract should be self-sustaining"
      },
      "fundAirlineMembership(string)": {
        "details": "Initial funding for the insurance. Unless there are too many delayed flights      resulting in insurance payouts, the contract should be self-sustaining"
      },
      "isOperational()": {
        "details": "Get operating status of contract",
        "returns": {
          "_0": "A bool that is the current operating status"
        }
      },
      "pay()": {
        "details": "Transfers eligible payout funds to insuree"
      },
      "registerAirline(address,address,string,bool)": {
        "details": "Add an airline to the registration queue  Can only be called from FlightSuretyApp contract"
      },
      "registerVote(address,address,string,uint256)": {
        "details": "register the vote for an airline in the multiparty concensus"
      },
      "setOperatingStatus(bool)": {
        "details": "Sets contract operations on/off When operational mode is disabled, all write transactions except for this one will fail"
      }
    },
    "version": 1
  },
  "userdoc": {
    "kind": "user",
    "methods": {},
    "version": 1
  }
}