{
  "contractName": "FlightSuretyApp",
  "abi": [
    {
      "inputs": [
        {
          "internalType": "address",
          "name": "FlightSuretyDataAddress",
          "type": "address"
        }
      ],
      "stateMutability": "nonpayable",
      "type": "constructor"
    },
    {
      "anonymous": false,
      "inputs": [
        {
          "indexed": false,
          "internalType": "address",
          "name": "airline",
          "type": "address"
        },
        {
          "indexed": false,
          "internalType": "string",
          "name": "flight",
          "type": "string"
        },
        {
          "indexed": false,
          "internalType": "uint256",
          "name": "timestamp",
          "type": "uint256"
        },
        {
          "indexed": false,
          "internalType": "uint8",
          "name": "status",
          "type": "uint8"
        }
      ],
      "name": "FlightStatusInfo",
      "type": "event"
    },
    {
      "anonymous": false,
      "inputs": [
        {
          "indexed": false,
          "internalType": "address",
          "name": "airline",
          "type": "address"
        },
        {
          "indexed": false,
          "internalType": "string",
          "name": "flight",
          "type": "string"
        },
        {
          "indexed": false,
          "internalType": "uint256",
          "name": "timestamp",
          "type": "uint256"
        },
        {
          "indexed": false,
          "internalType": "uint8",
          "name": "status",
          "type": "uint8"
        }
      ],
      "name": "OracleReport",
      "type": "event"
    },
    {
      "anonymous": false,
      "inputs": [
        {
          "indexed": false,
          "internalType": "uint8",
          "name": "index",
          "type": "uint8"
        },
        {
          "indexed": false,
          "internalType": "address",
          "name": "airline",
          "type": "address"
        },
        {
          "indexed": false,
          "internalType": "string",
          "name": "flight",
          "type": "string"
        },
        {
          "indexed": false,
          "internalType": "uint256",
          "name": "timestamp",
          "type": "uint256"
        }
      ],
      "name": "OracleRequest",
      "type": "event"
    },
    {
      "inputs": [],
      "name": "REGISTRATION_FEE",
      "outputs": [
        {
          "internalType": "uint256",
          "name": "",
          "type": "uint256"
        }
      ],
      "stateMutability": "view",
      "type": "function"
    },
    {
      "inputs": [],
      "name": "isOperational",
      "outputs": [
        {
          "internalType": "bool",
          "name": "",
          "type": "bool"
        }
      ],
      "stateMutability": "pure",
      "type": "function"
    },
    {
      "inputs": [
        {
          "internalType": "address",
          "name": "newAirlineAddress",
          "type": "address"
        },
        {
          "internalType": "string",
          "name": "code",
          "type": "string"
        }
      ],
      "name": "registerAirline",
      "outputs": [
        {
          "internalType": "bool",
          "name": "success",
          "type": "bool"
        },
        {
          "internalType": "uint256",
          "name": "votes",
          "type": "uint256"
        }
      ],
      "stateMutability": "nonpayable",
      "type": "function"
    },
    {
      "inputs": [
        {
          "internalType": "address",
          "name": "airlineToBeVote",
          "type": "address"
        }
      ],
      "name": "registerVote",
      "outputs": [],
      "stateMutability": "nonpayable",
      "type": "function"
    },
    {
      "inputs": [],
      "name": "registerFlight",
      "outputs": [],
      "stateMutability": "pure",
      "type": "function"
    },
    {
      "inputs": [
        {
          "internalType": "address",
          "name": "airline",
          "type": "address"
        },
        {
          "internalType": "string",
          "name": "flight",
          "type": "string"
        },
        {
          "internalType": "uint256",
          "name": "timestamp",
          "type": "uint256"
        }
      ],
      "name": "fetchFlightStatus",
      "outputs": [],
      "stateMutability": "nonpayable",
      "type": "function"
    },
    {
      "inputs": [],
      "name": "registerOracle",
      "outputs": [],
      "stateMutability": "payable",
      "type": "function"
    },
    {
      "inputs": [],
      "name": "getMyIndexes",
      "outputs": [
        {
          "internalType": "uint8[3]",
          "name": "",
          "type": "uint8[3]"
        }
      ],
      "stateMutability": "view",
      "type": "function"
    },
    {
      "inputs": [
        {
          "internalType": "uint8",
          "name": "index",
          "type": "uint8"
        },
        {
          "internalType": "address",
          "name": "airline",
          "type": "address"
        },
        {
          "internalType": "string",
          "name": "flight",
          "type": "string"
        },
        {
          "internalType": "uint256",
          "name": "timestamp",
          "type": "uint256"
        },
        {
          "internalType": "uint8",
          "name": "statusCode",
          "type": "uint8"
        }
      ],
      "name": "submitOracleResponse",
      "outputs": [],
      "stateMutability": "nonpayable",
      "type": "function"
    }
  ],
  "bytecode": "0x60806040526000600360006101000a81548160ff021916908360ff1602179055503480156200002d57600080fd5b5060405162001fe738038062001fe78339818101604052810190620000539190620001d7565b33600160006101000a81548173ffffffffffffffffffffffffffffffffffffffff021916908373ffffffffffffffffffffffffffffffffffffffff160217905550806000806101000a81548173ffffffffffffffffffffffffffffffffffffffff021916908373ffffffffffffffffffffffffffffffffffffffff16021790555060008054906101000a900473ffffffffffffffffffffffffffffffffffffffff1673ffffffffffffffffffffffffffffffffffffffff1663bc2f5e173360006040518363ffffffff1660e01b81526004016200013292919062000298565b600060405180830381600087803b1580156200014d57600080fd5b505af115801562000162573d6000803e3d6000fd5b5050505050620002da565b600080fd5b600073ffffffffffffffffffffffffffffffffffffffff82169050919050565b60006200019f8262000172565b9050919050565b620001b18162000192565b8114620001bd57600080fd5b50565b600081519050620001d181620001a6565b92915050565b600060208284031215620001f057620001ef6200016d565b5b60006200020084828501620001c0565b91505092915050565b620002148162000192565b82525050565b600082825260208201905092915050565b7f6169726c696e6531000000000000000000000000000000000000000000000000600082015250565b6000620002636008836200021a565b915062000270826200022b565b602082019050919050565b60008115159050919050565b62000292816200027b565b82525050565b6000606082019050620002af600083018562000209565b8181036020830152620002c28162000254565b9050620002d3604083018462000287565b9392505050565b611cfd80620002ea6000396000f3fe6080604052600436106100865760003560e01c8063c10f270011610059578063c10f270014610102578063cd905dff1461012b578063ec2130bc14610156578063ee38a7491461017f578063f83f11c0146101bd57610086565b8063339d25901461008b5780635f1cc0e61461009557806364b4f751146100c0578063ae6f17e0146100eb575b600080fd5b6100936101e6565b005b3480156100a157600080fd5b506100aa6102d3565b6040516100b7919061104a565b60405180910390f35b3480156100cc57600080fd5b506100d5610413565b6040516100e2919061107e565b60405180910390f35b3480156100f757600080fd5b5061010061041f565b005b34801561010e57600080fd5b50610129600480360381019061012491906112a9565b610421565b005b34801561013757600080fd5b506101406107b0565b60405161014d919061135b565b60405180910390f35b34801561016257600080fd5b5061017d60048036038101906101789190611376565b6107b9565b005b34801561018b57600080fd5b506101a660048036038101906101a191906113a3565b610899565b6040516101b49291906113ff565b60405180910390f35b3480156101c957600080fd5b506101e460048036038101906101df9190611428565b610a14565b005b670de0b6b3a7640000341015610231576040517f08c379a0000000000000000000000000000000000000000000000000000000008152600401610228906114f4565b60405180910390fd5b600061023c33610b1a565b9050604051806040016040528060011515815260200182815250600460003373ffffffffffffffffffffffffffffffffffffffff1673ffffffffffffffffffffffffffffffffffffffff16815260200190815260200160002060008201518160000160006101000a81548160ff0219169083151502179055506020820151816001019060036102cc929190610eb9565b5090505050565b6102db610f53565b600460003373ffffffffffffffffffffffffffffffffffffffff1673ffffffffffffffffffffffffffffffffffffffff16815260200190815260200160002060000160009054906101000a900460ff1661036a576040517f08c379a000000000000000000000000000000000000000000000000000000000815260040161036190611560565b60405180910390fd5b600460003373ffffffffffffffffffffffffffffffffffffffff1673ffffffffffffffffffffffffffffffffffffffff168152602001908152602001600020600101600380602002604051908101604052809291908260038015610409576020028201916000905b82829054906101000a900460ff1660ff16815260200190600101906020826000010492830192600103820291508084116103d25790505b5050505050905090565b670de0b6b3a764000081565b565b8460ff16600460003373ffffffffffffffffffffffffffffffffffffffff1673ffffffffffffffffffffffffffffffffffffffff16815260200190815260200160002060010160006003811061047a57610479611580565b5b602091828204019190069054906101000a900460ff1660ff16148061050e57508460ff16600460003373ffffffffffffffffffffffffffffffffffffffff1673ffffffffffffffffffffffffffffffffffffffff1681526020019081526020016000206001016001600381106104f3576104f2611580565b5b602091828204019190069054906101000a900460ff1660ff16145b8061058857508460ff16600460003373ffffffffffffffffffffffffffffffffffffffff1673ffffffffffffffffffffffffffffffffffffffff16815260200190815260200160002060010160026003811061056d5761056c611580565b5b602091828204019190069054906101000a900460ff1660ff16145b6105c7576040517f08c379a00000000000000000000000000000000000000000000000000000000081526004016105be90611621565b60405180910390fd5b6000858585856040516020016105e0949392919061175a565b6040516020818303038152906040528051906020012090506005600082815260200190815260200160002060000160149054906101000a900460ff1661065b576040517f08c379a000000000000000000000000000000000000000000000000000000000815260040161065290611816565b60405180910390fd5b6005600082815260200190815260200160002060010160008360ff1660ff168152602001908152602001600020339080600181540180825580915050600190039060005260206000200160009091909190916101000a81548173ffffffffffffffffffffffffffffffffffffffff021916908373ffffffffffffffffffffffffffffffffffffffff1602179055507f43c853095c2752648493c88b4baac4d580d2594ffb00c6f1d4242d844514f7838585858560405161071e949392919061188d565b60405180910390a160036005600083815260200190815260200160002060010160008460ff1660ff16815260200190815260200160002080549050106107a8577fe23f5229de535c091e3b7bec2665f5d698192d3b31393066e8987b7a05076b6c85858585604051610793949392919061188d565b60405180910390a16107a785858585610d01565b5b505050505050565b60006001905090565b60016107fa576040517f08c379a00000000000000000000000000000000000000000000000000000000081526004016107f19061194b565b60405180910390fd5b6000610804610d07565b905060008054906101000a900473ffffffffffffffffffffffffffffffffffffffff1673ffffffffffffffffffffffffffffffffffffffff16639d44af093384846040518463ffffffff1660e01b81526004016108639392919061196b565b600060405180830381600087803b15801561087d57600080fd5b505af1158015610891573d6000803e3d6000fd5b505050505050565b60008060016108dd576040517f08c379a00000000000000000000000000000000000000000000000000000000081526004016108d49061194b565b60405180910390fd5b60008054906101000a900473ffffffffffffffffffffffffffffffffffffffff1673ffffffffffffffffffffffffffffffffffffffff1663bc2f5e178585600460008054906101000a900473ffffffffffffffffffffffffffffffffffffffff1673ffffffffffffffffffffffffffffffffffffffff16638b93eb9a6040518163ffffffff1660e01b81526004016000604051808303816000875af115801561098a573d6000803e3d6000fd5b505050506040513d6000823e3d601f19601f820116820180604052508101906109b39190611a7f565b5111156040518463ffffffff1660e01b81526004016109d493929190611ac8565b600060405180830381600087803b1580156109ee57600080fd5b505af1158015610a02573d6000803e3d6000fd5b50505050816000915091509250929050565b6000610a1f33610ded565b9050600081858585604051602001610a3a949392919061175a565b604051602081830303815290604052805190602001209050336005600083815260200190815260200160002060000160006101000a81548173ffffffffffffffffffffffffffffffffffffffff021916908373ffffffffffffffffffffffffffffffffffffffff16021790555060016005600083815260200190815260200160002060000160146101000a81548160ff0219169083151502179055507f3ed01f2c3fc24c6b329d931e35b03e390d23497d22b3f90e15b600343e93df1182868686604051610b0b9493929190611b06565b60405180910390a15050505050565b610b22610f53565b610b2a610f53565b610b3383610ded565b81600060038110610b4757610b46611580565b5b602002019060ff16908160ff168152505080600060038110610b6c57610b6b611580565b5b602002015181600160038110610b8557610b84611580565b5b602002019060ff16908160ff16815250505b80600060038110610bab57610baa611580565b5b602002015160ff1681600160038110610bc757610bc6611580565b5b602002015160ff161415610c0857610bde83610ded565b81600160038110610bf257610bf1611580565b5b602002019060ff16908160ff1681525050610b97565b80600160038110610c1c57610c1b611580565b5b602002015181600260038110610c3557610c34611580565b5b602002019060ff16908160ff16815250505b80600060038110610c5b57610c5a611580565b5b602002015160ff1681600260038110610c7757610c76611580565b5b602002015160ff161480610cc0575080600160038110610c9a57610c99611580565b5b602002015160ff1681600260038110610cb657610cb5611580565b5b602002015160ff16145b15610cf857610cce83610ded565b81600260038110610ce257610ce1611580565b5b602002019060ff16908160ff1681525050610c47565b80915050919050565b50505050565b60008060008054906101000a900473ffffffffffffffffffffffffffffffffffffffff1673ffffffffffffffffffffffffffffffffffffffff16638b93eb9a6040518163ffffffff1660e01b81526004016000604051808303816000875af1158015610d77573d6000803e3d6000fd5b505050506040513d6000823e3d601f19601f82011682018060405250810190610da09190611a7f565b51905060006001600283610db49190611b81565b1415610dd6576002600183610dc99190611be1565b610dd39190611c15565b90505b600282610de39190611c15565b9050809250505090565b600080600a905060008160ff166003600081819054906101000a900460ff1680929190610e1990611c46565b91906101000a81548160ff021916908360ff16021790555060ff1643610e3f9190611be1565b4085604051602001610e52929190611c9b565b6040516020818303038152906040528051906020012060001c610e759190611b81565b905060fa600360009054906101000a900460ff1660ff161115610eaf576000600360006101000a81548160ff021916908360ff1602179055505b8092505050919050565b826003601f01602090048101928215610f425791602002820160005b83821115610f1357835183826101000a81548160ff021916908360ff1602179055509260200192600101602081600001049283019260010302610ed5565b8015610f405782816101000a81549060ff0219169055600101602081600001049283019260010302610f13565b505b509050610f4f9190610f75565b5090565b6040518060600160405280600390602082028036833780820191505090505090565b5b80821115610f8e576000816000905550600101610f76565b5090565b600060039050919050565b600081905092915050565b6000819050919050565b600060ff82169050919050565b610fc881610fb2565b82525050565b6000610fda8383610fbf565b60208301905092915050565b6000602082019050919050565b610ffc81610f92565b6110068184610f9d565b925061101182610fa8565b8060005b838110156110425781516110298782610fce565b965061103483610fe6565b925050600181019050611015565b505050505050565b600060608201905061105f6000830184610ff3565b92915050565b6000819050919050565b61107881611065565b82525050565b6000602082019050611093600083018461106f565b92915050565b6000604051905090565b600080fd5b600080fd5b6110b681610fb2565b81146110c157600080fd5b50565b6000813590506110d3816110ad565b92915050565b600073ffffffffffffffffffffffffffffffffffffffff82169050919050565b6000611104826110d9565b9050919050565b611114816110f9565b811461111f57600080fd5b50565b6000813590506111318161110b565b92915050565b600080fd5b600080fd5b6000601f19601f8301169050919050565b7f4e487b7100000000000000000000000000000000000000000000000000000000600052604160045260246000fd5b61118a82611141565b810181811067ffffffffffffffff821117156111a9576111a8611152565b5b80604052505050565b60006111bc611099565b90506111c88282611181565b919050565b600067ffffffffffffffff8211156111e8576111e7611152565b5b6111f182611141565b9050602081019050919050565b82818337600083830152505050565b600061122061121b846111cd565b6111b2565b90508281526020810184848401111561123c5761123b61113c565b5b6112478482856111fe565b509392505050565b600082601f83011261126457611263611137565b5b813561127484826020860161120d565b91505092915050565b61128681611065565b811461129157600080fd5b50565b6000813590506112a38161127d565b92915050565b600080600080600060a086880312156112c5576112c46110a3565b5b60006112d3888289016110c4565b95505060206112e488828901611122565b945050604086013567ffffffffffffffff811115611305576113046110a8565b5b6113118882890161124f565b935050606061132288828901611294565b9250506080611333888289016110c4565b9150509295509295909350565b60008115159050919050565b61135581611340565b82525050565b6000602082019050611370600083018461134c565b92915050565b60006020828403121561138c5761138b6110a3565b5b600061139a84828501611122565b91505092915050565b600080604083850312156113ba576113b96110a3565b5b60006113c885828601611122565b925050602083013567ffffffffffffffff8111156113e9576113e86110a8565b5b6113f58582860161124f565b9150509250929050565b6000604082019050611414600083018561134c565b611421602083018461106f565b9392505050565b600080600060608486031215611441576114406110a3565b5b600061144f86828701611122565b935050602084013567ffffffffffffffff8111156114705761146f6110a8565b5b61147c8682870161124f565b925050604061148d86828701611294565b9150509250925092565b600082825260208201905092915050565b7f526567697374726174696f6e2066656520697320726571756972656400000000600082015250565b60006114de601c83611497565b91506114e9826114a8565b602082019050919050565b6000602082019050818103600083015261150d816114d1565b9050919050565b7f4e6f74207265676973746572656420617320616e206f7261636c650000000000600082015250565b600061154a601b83611497565b915061155582611514565b602082019050919050565b600060208201905081810360008301526115798161153d565b9050919050565b7f4e487b7100000000000000000000000000000000000000000000000000000000600052603260045260246000fd5b7f496e64657820646f6573206e6f74206d61746368206f7261636c65207265717560008201527f6573740000000000000000000000000000000000000000000000000000000000602082015250565b600061160b602383611497565b9150611616826115af565b604082019050919050565b6000602082019050818103600083015261163a816115fe565b9050919050565b60008160f81b9050919050565b600061165982611641565b9050919050565b61167161166c82610fb2565b61164e565b82525050565b60008160601b9050919050565b600061168f82611677565b9050919050565b60006116a182611684565b9050919050565b6116b96116b4826110f9565b611696565b82525050565b600081519050919050565b600081905092915050565b60005b838110156116f35780820151818401526020810190506116d8565b83811115611702576000848401525b50505050565b6000611713826116bf565b61171d81856116ca565b935061172d8185602086016116d5565b80840191505092915050565b6000819050919050565b61175461174f82611065565b611739565b82525050565b60006117668287611660565b60018201915061177682866116a8565b6014820191506117868285611708565b91506117928284611743565b60208201915081905095945050505050565b7f466c69676874206f722074696d657374616d7020646f206e6f74206d6174636860008201527f206f7261636c6520726571756573740000000000000000000000000000000000602082015250565b6000611800602f83611497565b915061180b826117a4565b604082019050919050565b6000602082019050818103600083015261182f816117f3565b9050919050565b61183f816110f9565b82525050565b6000611850826116bf565b61185a8185611497565b935061186a8185602086016116d5565b61187381611141565b840191505092915050565b61188781610fb2565b82525050565b60006080820190506118a26000830187611836565b81810360208301526118b48186611845565b90506118c3604083018561106f565b6118d0606083018461187e565b95945050505050565b7f436f6e74726163742069732063757272656e746c79206e6f74206f706572617460008201527f696f6e616c000000000000000000000000000000000000000000000000000000602082015250565b6000611935602583611497565b9150611940826118d9565b604082019050919050565b6000602082019050818103600083015261196481611928565b9050919050565b60006060820190506119806000830186611836565b61198d6020830185611836565b61199a604083018461106f565b949350505050565b600067ffffffffffffffff8211156119bd576119bc611152565b5b602082029050602081019050919050565b600080fd5b6000815190506119e28161110b565b92915050565b60006119fb6119f6846119a2565b6111b2565b90508083825260208201905060208402830185811115611a1e57611a1d6119ce565b5b835b81811015611a475780611a3388826119d3565b845260208401935050602081019050611a20565b5050509392505050565b600082601f830112611a6657611a65611137565b5b8151611a768482602086016119e8565b91505092915050565b600060208284031215611a9557611a946110a3565b5b600082015167ffffffffffffffff811115611ab357611ab26110a8565b5b611abf84828501611a51565b91505092915050565b6000606082019050611add6000830186611836565b8181036020830152611aef8185611845565b9050611afe604083018461134c565b949350505050565b6000608082019050611b1b600083018761187e565b611b286020830186611836565b8181036040830152611b3a8185611845565b9050611b49606083018461106f565b95945050505050565b7f4e487b7100000000000000000000000000000000000000000000000000000000600052601260045260246000fd5b6000611b8c82611065565b9150611b9783611065565b925082611ba757611ba6611b52565b5b828206905092915050565b7f4e487b7100000000000000000000000000000000000000000000000000000000600052601160045260246000fd5b6000611bec82611065565b9150611bf783611065565b925082821015611c0a57611c09611bb2565b5b828203905092915050565b6000611c2082611065565b9150611c2b83611065565b925082611c3b57611c3a611b52565b5b828204905092915050565b6000611c5182610fb2565b915060ff821415611c6557611c64611bb2565b5b600182019050919050565b6000819050919050565b6000819050919050565b611c95611c9082611c70565b611c7a565b82525050565b6000611ca78285611c84565b602082019150611cb782846116a8565b601482019150819050939250505056fea26469706673582212202cf7d91ae3418623f95ef93084f81ce1a1052c0b793e54ec69b7d46fa7b6dd5464736f6c634300080a0033",
  "immutableReferences": {},
  "source": "// SPDX-License-Identifier: MIT\npragma solidity ^0.8.10;\n\n\n// It's important to avoid vulnerabilities due to numeric overflow bugs\n// OpenZeppelin's SafeMath library, when used correctly, protects agains such bugs\n// More info: https://www.nccgroup.trust/us/about-us/newsroom-and-events/blog/2018/november/smart-contract-insecurity-bad-arithmetic/\n\nimport \"../node_modules/@openzeppelin/contracts/utils/math/SafeMath.sol\";\n\n\n/************************************************** */\n/* FlightSurety DATA - Abstract Smart Contract      */\n/************************************************** */\n\nabstract contract FlightSuretyData {\n\n  struct Airline {\n    bool accepted; //If the airline should be voted to be in, once reach the minimum votes change to accepted\n    uint256 votes; // Votes counter\n    bool funded; //the airline can be accepted \n    string code;   //also works with a airline identifier\n  }\n\n  function registerAirline(\n    address newAirlineAddress, \n    string memory code,\n    bool queue\n  ) external {}\n\n  function contractActiveAirlines() public returns(address[] memory) {}\n\n  function getAnAirline (address airline) external view returns(Airline memory) {} /*$*/\n\n  function registerVote (\n    address callerAirline, \n    address newAirlineAddress, \n    uint votesQuantityToBeAccepted ) external {}\n}\n\n/************************************************** */\n/* FlightSurety App Smart Contract                  */\n/************************************************** */\ncontract FlightSuretyApp {\n    \n    FlightSuretyData contractData;\n    /********************************************************************************************/\n    /*                                       DATA VARIABLES                                     */\n    /********************************************************************************************/\n\n    // Flight status codees\n    uint8 private constant STATUS_CODE_UNKNOWN = 0;\n    uint8 private constant STATUS_CODE_ON_TIME = 10;\n    uint8 private constant STATUS_CODE_LATE_AIRLINE = 20;\n    uint8 private constant STATUS_CODE_LATE_WEATHER = 30;\n    uint8 private constant STATUS_CODE_LATE_TECHNICAL = 40;\n    uint8 private constant STATUS_CODE_LATE_OTHER = 50;\n\n    address private contractOwner;          // Account used to deploy contract\n\n    struct Flight {\n        bool isRegistered;\n        uint8 statusCode;\n        uint256 updatedTimestamp;        \n        address airline;\n    }\n    mapping(bytes32 => Flight) private flights;\n\n    /********************************************************************************************/\n    /*                                       FUNCTION MODIFIERS                                 */\n    /********************************************************************************************/\n\n    // Modifiers help avoid duplication of code. They are typically used to validate something\n    // before a function is allowed to be executed.\n\n    /**\n    * @dev Modifier that requires the \"operational\" boolean variable to be \"true\"\n    *      This is used on all state changing functions to pause the contract in \n    *      the event there is an issue that needs to be fixed\n    */\n    modifier requireIsOperational() \n    {\n         // Modify to call data contract's status\n        require(true, \"Contract is currently not operational\");  \n        _;  // All modifiers require an \"_\" which indicates where the function body will be added\n    }\n\n    /**\n    * @dev Modifier that requires the \"ContractOwner\" account to be the function caller\n    */\n    modifier requireContractOwner()\n    {\n        require(msg.sender == contractOwner, \"Caller is not contract owner\");\n        _;\n    }\n\n    /**\n    * @dev Modifier that requires the the multi party consensus is available\n    */\n    /*modifier isMultiPartyAccepted() {\n      require(contractData.acceptedAirlines().length >= 4, \"We're not receiving votes yet \");\n      _;\n    }*/\n\n    /**\n    * @dev Modifier that requires the airline exists and accepted state is false \n    */\n    /*modifier isAnAirlineInQueue(address newAirline) {\n      require(contractData.getAnAirline(newAirline).accepted == false, \"The airline can't be voted or not exists\");\n      _;\n    }*/\n\n    /**\n    * @dev Modifier that requires the airline is accepted and funded to participate in the contract\n    */\n    /*modifier isAEnableAirline() {\n      FlightSuretyData.Airline memory airlineReference = contractData.getAnAirline(msg.sender);\n      require(airlineReference.accepted == false && airlineReference.funded == false , \"You can't vote\");\n      _;\n    }*/\n\n    /********************************************************************************************/\n    /*                                       CONSTRUCTOR                                        */\n    /********************************************************************************************/\n\n    /**\n    * @dev Contract constructor\n    *\n    */\n    constructor (address FlightSuretyDataAddress) \n                                 \n    {\n        contractOwner = msg.sender;\n        contractData = FlightSuretyData(FlightSuretyDataAddress);\n        contractData.registerAirline(msg.sender, \"airline1\", false);\n    }\n\n    /********************************************************************************************/\n    /*                                       UTILITY FUNCTIONS                                  */\n    /********************************************************************************************/\n\n    function isOperational() \n                            public \n                            pure \n                            returns(bool) \n    {\n        return true;  // Modify to call data contract's status\n    }\n\n    function _votesQuantityToBeAccepted() private returns(uint) {\n      uint activeAirlines = contractData.contractActiveAirlines().length;\n      uint votesQuantityToBeAccepted;\n      if (activeAirlines % 2 == 1) {\n        votesQuantityToBeAccepted = (activeAirlines - 1) / 2;\n      }\n      votesQuantityToBeAccepted = activeAirlines / 2;\n      return votesQuantityToBeAccepted;\n    }\n\n    /********************************************************************************************/\n    /*                                     SMART CONTRACT FUNCTIONS                             */\n    /********************************************************************************************/\n\n  \n   /**\n    * @dev Add an airline to the registration queue\n    *\n    */   \n    function registerAirline\n      (   \n        address newAirlineAddress,\n        string memory code\n      )\n      external \n      requireIsOperational\n      returns(bool success, uint256 votes)\n    {\n        contractData.registerAirline(\n          newAirlineAddress, \n          code, \n          contractData.contractActiveAirlines().length <= 4\n        );\n        return (success, 0);\n    }\n    \n    /**\n    * @dev vote for accept an airline\n    *\n    */ \n    function registerVote\n      (   \n        address airlineToBeVote\n      )\n      external \n      requireIsOperational\n    {\n      uint votesNeeded = _votesQuantityToBeAccepted();\n      contractData.registerVote(msg.sender, airlineToBeVote, votesNeeded);\n    }\n\n\n   /**\n    * @dev Register a future flight for insuring.\n    *\n    */  \n    function registerFlight\n                                (\n                                )\n                                external\n                                pure\n    {\n\n    }\n    \n   /**\n    * @dev Called after oracle has updated flight status\n    *\n    */  \n    function processFlightStatus\n                                (\n                                    address airline,\n                                    string memory flight,\n                                    uint256 timestamp,\n                                    uint8 statusCode\n                                )\n                                internal\n                                pure\n    {\n    }\n\n\n    // Generate a request for oracles to fetch flight information\n    function fetchFlightStatus\n                        (\n                            address airline,\n                            string memory flight,\n                            uint256 timestamp                            \n                        )\n                        external\n    {\n        uint8 index = getRandomIndex(msg.sender);\n\n        // Generate a unique key for storing the request\n        bytes32 key = keccak256(abi.encodePacked(index, airline, flight, timestamp));\n        oracleResponses[key].requester = msg.sender;\n        oracleResponses[key].isOpen = true;\n        emit OracleRequest(index, airline, flight, timestamp);\n    } \n\n\n// region ORACLE MANAGEMENT\n\n    // Incremented to add pseudo-randomness at various points\n    uint8 private nonce = 0;    \n\n    // Fee to be paid when registering oracle\n    uint256 public constant REGISTRATION_FEE = 1 ether;\n\n    // Number of oracles that must respond for valid status\n    uint256 private constant MIN_RESPONSES = 3;\n\n\n    struct Oracle {\n        bool isRegistered;\n        uint8[3] indexes;        \n    }\n\n    // Track all registered oracles\n    mapping(address => Oracle) private oracles;\n\n    // Model for responses from oracles\n    struct ResponseInfo {\n        address requester;                              // Account that requested status\n        bool isOpen;                                    // If open, oracle responses are accepted\n        mapping(uint8 => address[]) responses;          // Mapping key is the status code reported\n                                                        // This lets us group responses and identify\n                                                        // the response that majority of the oracles\n    }\n\n    // Track all oracle responses\n    // Key = hash(index, flight, timestamp)\n    mapping(bytes32 => ResponseInfo) private oracleResponses;\n\n    // Event fired each time an oracle submits a response\n    event FlightStatusInfo(address airline, string flight, uint256 timestamp, uint8 status);\n\n    event OracleReport(address airline, string flight, uint256 timestamp, uint8 status);\n\n    // Event fired when flight status request is submitted\n    // Oracles track this and if they have a matching index\n    // they fetch data and submit a response\n    event OracleRequest(uint8 index, address airline, string flight, uint256 timestamp);\n\n\n    // Register an oracle with the contract\n    function registerOracle\n                            (\n                            )\n                            external\n                            payable\n    {\n        // Require registration fee\n        require(msg.value >= REGISTRATION_FEE, \"Registration fee is required\");\n\n        uint8[3] memory indexes = generateIndexes(msg.sender);\n\n        oracles[msg.sender] = Oracle({\n                                        isRegistered: true,\n                                        indexes: indexes\n                                    });\n    }\n\n    function getMyIndexes\n                            (\n                            )\n                            view\n                            external\n                            returns(uint8[3] memory)\n    {\n        require(oracles[msg.sender].isRegistered, \"Not registered as an oracle\");\n\n        return oracles[msg.sender].indexes;\n    }\n\n\n\n\n    // Called by oracle when a response is available to an outstanding request\n    // For the response to be accepted, there must be a pending request that is open\n    // and matches one of the three Indexes randomly assigned to the oracle at the\n    // time of registration (i.e. uninvited oracles are not welcome)\n    function submitOracleResponse\n                        (\n                            uint8 index,\n                            address airline,\n                            string memory  flight,\n                            uint256 timestamp,\n                            uint8 statusCode\n                        )\n                        external\n    {\n        require((oracles[msg.sender].indexes[0] == index) || (oracles[msg.sender].indexes[1] == index) || (oracles[msg.sender].indexes[2] == index), \"Index does not match oracle request\");\n\n\n        bytes32 key = keccak256(abi.encodePacked(index, airline, flight, timestamp)); \n        require(oracleResponses[key].isOpen, \"Flight or timestamp do not match oracle request\");\n\n        oracleResponses[key].responses[statusCode].push(msg.sender);\n\n        // Information isn't considered verified until at least MIN_RESPONSES\n        // oracles respond with the *** same *** information\n        emit OracleReport(airline, flight, timestamp, statusCode);\n        if (oracleResponses[key].responses[statusCode].length >= MIN_RESPONSES) {\n\n            emit FlightStatusInfo(airline, flight, timestamp, statusCode);\n\n            // Handle flight status as appropriate\n            processFlightStatus(airline, flight, timestamp, statusCode);\n        }\n    }\n\n\n    function getFlightKey\n                        (\n                            address airline,\n                            string memory flight,\n                            uint256 timestamp\n                        )\n                        pure\n                        internal\n                        returns(bytes32) \n    {\n        return keccak256(abi.encodePacked(airline, flight, timestamp));\n    }\n\n    // Returns array of three non-duplicating integers from 0-9\n    function generateIndexes\n                            (                       \n                                address account         \n                            )\n                            internal\n                            returns(uint8[3] memory )\n    {\n        uint8[3] memory indexes;\n        indexes[0] = getRandomIndex(account);\n        \n        indexes[1] = indexes[0];\n        while(indexes[1] == indexes[0]) {\n            indexes[1] = getRandomIndex(account);\n        }\n\n        indexes[2] = indexes[1];\n        while((indexes[2] == indexes[0]) || (indexes[2] == indexes[1])) {\n            indexes[2] = getRandomIndex(account);\n        }\n\n        return indexes;\n    }\n\n    // Returns array of three non-duplicating integers from 0-9\n    function getRandomIndex\n                            (\n                                address account\n                            )\n                            internal\n                            returns (uint8)\n    {\n        uint8 maxValue = 10;\n\n        // Pseudo random number...the incrementing nonce adds variation\n        uint8 random = uint8(uint256(keccak256(abi.encodePacked(blockhash(block.number - nonce++), account))) % maxValue);\n\n        if (nonce > 250) {\n            nonce = 0;  // Can only fetch blockhashes for last 256 blocks so we adapt\n        }\n\n        return random;\n    }\n\n// endregion\n\n}   \n",
  "sourcePath": "/home/davidrb/Documents/estudio/blockchain/udacity/me/fifth-module/me/final-proyect/contracts/FlightSuretyApp.sol",
  "compiler": {
    "name": "solc",
    "version": "0.8.10+commit.fc410830.Emscripten.clang"
  },
  "schemaVersion": "3.4.3",
  "updatedAt": "2022-01-21T16:58:45.391Z",
  "devdoc": {
    "kind": "dev",
    "methods": {
      "constructor": {
        "details": "Contract constructor"
      },
      "registerAirline(address,string)": {
        "details": "Add an airline to the registration queue"
      },
      "registerFlight()": {
        "details": "Register a future flight for insuring."
      },
      "registerVote(address)": {
        "details": "vote for accept an airline"
      }
    },
    "version": 1
  },
  "userdoc": {
    "kind": "user",
    "methods": {},
    "version": 1
  }
}